:100000000C9434000C9451000C9451000C94510049
:100010000C9451000C9451000C9451000C9451001C
:100020000C9451000C9451000C9451000C94FB0062
:100030000C9451000C9451000C9451000C945100FC
:100040000C9492000C9451000C9451000C945100AB
:100050000C940D010C9451000C9451000C9451001F
:100060000C9451000C94510011241FBECFEFD8E026
:10007000DEBFCDBF11E0A0E0B1E0ECEDF2E002C0E8
:1000800005900D92A430B107D9F721E0A4E0B1E0CA
:1000900001C01D92AD38B207E1F70E9475000C94C3
:1000A0006C010C94000014BC85B5836085BDEEE640
:1000B000F0E080818160808308959C0140E050E001
:1000C00060E472E48FE090E00E944A01215031091F
:1000D0003093C5002093C40088ED8093C100E2EC0A
:1000E000F0E080818660808308958FE384B9E1E841
:1000F000F0E080818460808380818860808383E2F7
:1001000094EF9093890080938800EFE6F0E080817F
:10011000826080830E94530080E895E20E945D0027
:100120007894FFCF1F920F920FB60F921124CF92A7
:10013000DF92EF92FF920F931F932F933F934F9372
:100140005F936F937F938F939F93AF93BF93EF933F
:10015000C0900901D0900A01E0900B01F0900C01D1
:1001600000910501109106012091070130910801CD
:10017000B701A6014F5F5F4F6F4F7F4FD901C80195
:100180004896A11DB11D893EE3E09E07A105B1057A
:1001900060F0B701A6014E5F5F4F6F4F7F4FD901EF
:1001A000C801805D9340A109B109409309015093B2
:1001B0000A0160930B0170930C01809305019093E9
:1001C0000601A0930701B0930801EF91BF91AF9191
:1001D0009F918F917F916F915F914F913F912F915F
:1001E0001F910F91FF90EF90DF90CF900F900FBE77
:1001F0000F901F9018951F920F920FB60F92112417
:100200008F939F9395B180E2892785B99F918F91B4
:100210000F900FBE0F901F9018951F920F920FB660
:100220000F9211242F933F938F939F93EF93FF93FC
:10023000E0910001F0910101809102019091030190
:10024000E817F907D1F080818093C6008091000102
:10025000909101019C012F5F3F4F3093010120934A
:1002600000018F579F4F2817390748F08DE091E024
:10027000909301018093000102C010920401FF914C
:10028000EF919F918F913F912F910F900FBE0F9003
:100290001F901895A1E21A2EAA1BBB1BFD010DC0D1
:1002A000AA1FBB1FEE1FFF1FA217B307E407F50726
:1002B00020F0A21BB30BE40BF50B661F771F881F02
:1002C000991F1A9469F760957095809590959B0198
:0C02D000AC01BD01CF010895F894FFCFF0
:0402DC000D010D0102
:00000001FF
