S0190000666C696768745F636F6E74726F6C6C65722E73726563EA
S11300000C9434000C9451000C9451000C940F0285
S11300100C9451000C9451000C9451000C94510018
S11300200C9451000C9451000C9451000C94CE018A
S11300300C9451000C9451000C9451000C945100F8
S11300400C9465010C9451000C9451000C945100D3
S11300500C94D8010C9451000C9451000C94510050
S11300600C9451000C94510011241FBECFEFD8E022
S1130070DEBFCDBF11E0A0E0B1E0EAE8FCE002C0E1
S113008005900D92AE32B107D9F721E0AEE2B1E0AE
S113009001C01D92AF3DB207E1F70E9459010C94D3
S11300A043060C94000014BC85B5836085BDEEE660
S11300B0F0E080818160808308959C0140E050E0FD
S11300C060E472E48FE090E00E943703215031092C
S11300D03093C5002093C40088ED8093C100E2EC06
S11300E0F0E0808186608083089514B815B8E8E64E
S11300F0F0E0808181608083EBE6F0E080818F60B6
S113010080830895EF92FF920F931F932FB7F89473
S11301108091330190913401A0913501B091360161
S1130120AC01BD01032E3AE0440F551F661F771F33
S11301303A95D1F7302D86B590E0880F991F880F36
S1130140991F092E000CAA0BBB0B7A018B01E80E38
S1130150F91E0A1F1B1FC801B7012FBF1F910F9162
S1130160FF90EF900895E0910201F0910301AF0137
S11301704F5F5F4F21E04B3B520710F04BE351E0E0
S1130180209100013091010124173507C9F38083C0
S1130190509303014093020180912E0181111CC0F0
S11301A081E080932E01E0910001F09101018081B2
S11301B08093C60080910001909101010196909373
S11301C00101809300018B5B914030F08BE391E05F
S11301D090930101809300010895CF93DF93EC0184
S11301E003C021960E94B30088818111FACFDF9168
S11301F0CF910895CF92DF92EF92FF920F931F93C6
S1130200CF93DF93CDB7DEB7C058D1090FB6F894BA
S1130210DEBF0FBECDBFEFEBF1E0C484D584E6842E
S1130220F784008511852285338544815581668153
S1130230778180819181A281B381FF92EF92DF92D5
S1130240CF923F932F931F930F937F936F935F935B
S11302504F93BF93AF939F938F9384E091E09F93C9
S11302608F938E010F5F1F4F1F930F930E945903AB
S1130270C8010E94ED002FEF84E39CE021508040F0
S11302809040E1F700C000000FB6F894DEBF0FBE47
S1130290CDBFC058DF4F0FB6F894DEBF0FBECDBF41
S11302A0DF91CF911F910F91FF90EF90DF90CF904E
S11302B008950E94530080E895E20E945D000E9428
S11302C0750078940E94FA00FDCF1F920F920FB62A
S11302D00F921124CF92DF92EF92FF920F931F930C
S11302E02F933F934F935F936F937F938F939F933A
S11302F0AF93BF93EF93C0903301D0903401E0905B
S11303003501F090360100912F01109130012091B8
S1130310310130913201B701A6014F5F5F4F6F4F3A
S11303207F4FD901C8014896A11DB11D893EE3E064
S11303309E07A105B10560F0B701A6014E5F5F4FAE
S11303406F4F7F4FD901C801805D9340A109B10966
S11303504093330150933401609335017093360117
S113036080932F0190933001A0933101B093320117
S1130370EF91BF91AF919F918F917F916F915F9119
S11303804F913F912F911F910F91FF90EF90DF902C
S1130390CF900F900FBE0F901F9018951F920F9241
S11303A00FB60F9211240F900FBE0F901F90189547
S11303B01F920F920FB60F9211242F938F939F9336
S11303C0EF93FF93E0910001F0910101809102010C
S11303D090910301E817F907B1F080818093C6007A
S11303E08091000190910101019690930101809305
S11303F000018B5B914048F08BE391E09093010105
S11304008093000102C010922E01FF91EF919F9101
S11304108F912F910F900FBE0F901F9018951F92E0
S11304200F920FB60F921124CF92DF92EF92FF92A8
S11304300F931F932F933F934F935F936F937F93E8
S11304408F939F93AF93BF93EF93FF930E94820088
S113045060933701709338018093390190933A0186
S1130460189B10C02091D201211137C021E02093A4
S1130470D2016093D3017093D4018093D5019093FA
S1130480D6012BC02091D201213039F51092D2012E
S11304900091D3011091D4012091D5013091D6015E
S11304A06B017C01C01AD10AE20AF30A97018601A2
S11304B048EEC41A43E0D40AE108F10849EEC41630
S11304C043E0D406E104F10440F40093BF01109327
S11304D0C0012093C1013093C201199B10C0209127
S11304E0D001211137C021E02093D0016093DB01BA
S11304F07093DC018093DD019093DE012BC0209189
S1130500D001213039F51092D0010091DB01109116
S1130510DC012091DD013091DE016B017C01C01A08
S1130520D10AE20AF30A9701860148EEC41A43E0AD
S1130530D40AE108F10849EEC41643E0D406E10404
S1130540F10440F40093C3011093C4012093C50146
S11305503093C6011A9B10C02091CF01211137C0DE
S113056021E02093CF016093D7017093D801809349
S1130570D9019093DA012BC02091CF01213039F5B4
S11305801092CF010091D7011091D8012091D90187
S11305903091DA016B017C01C01AD10AE20AF30A34
S11305A09701860148EEC41A43E0D40AE108F10831
S11305B049EEC41643E0D406E104F10440F4009388
S11305C0C7011093C8012093C9013093CA011B9B32
S11305D010C02091D101211133C021E02093D10119
S11305E06093BB017093BC018093BD019093BE01E5
S11305F027C02091D101213019F51092D101009129
S1130600BB011091BC012091BD013091BE01DC0100
S1130610CB01801B910BA20BB30B8C019D01085ED7
S1130620134021093109093E13402105310540F4E5
S11306308093CB019093CC01A093CD01B093CE01D4
S1130640FF91EF91BF91AF919F918F917F916F91A6
S11306505F914F913F912F911F910F91FF90EF90D8
S1130660DF90CF900F900FBE0F901F901895A1E2CE
S11306701A2EAA1BBB1BFD010DC0AA1FBB1FEE1F18
S1130680FF1FA217B307E407F50720F0A21BB30B63
S1130690E40BF50B661F771F881F991F1A9469F7DF
S11306A060957095809590959B01AC01BD01CF013B
S11306B00895AEE0B0E0EFE5F3E00C941A060D897E
S11306C01E8986E08C831A8309838FEF9FE79E83BC
S11306D08D83AE01475E5F4F6F89788DCE010196A1
S11306E00E947B03EF81F885E00FF11F10822E96A4
S11306F0E4E00C943606ABE0B0E0E1E8F3E00C94FF
S11307000C066C017B018A01FC011782168283812D
S113071081FFCCC1CE0101963C01F6019381F70122
S113072093FD859193FF81917F01882309F4BAC1D8
S1130730853239F493FD859193FF81917F01853250
S113074029F4B60190E00E947205E7CF912C212C88
S1130750312CFFE1F315D8F08B3279F038F4803284
S113076079F08332A1F4232D20611DC08D3261F014
S1130770803369F4232D216016C0832D8260382EC6
S1130780E32DE4603E2E2AC0F32DF8601DC037FC33
S11307902DC020ED280F2A3040F08E32B9F436FCFB
S11307A081C1232D2064322E19C036FE06C08AE092
S11307B0989E200D1124922E11C0EAE02E9E200D49
S11307C01124222EF32DF0623F2E08C08C3621F422
S11307D0832D8068382E02C0883641F4F70193FDDA
S11307E0859193FF81917F018111B3CF982F9F7DD4
S11307F09554933028F40C5F1F4F9FE399830DC0E9
S1130800833631F0833771F0833509F059C021C044
S1130810F801808189830E5F1F4F88248394912C73
S1130820530113C02801F2E04F0E511CF801A080BF
S1130830B18036FE03C0692D70E002C06FEF7FEF18
S1130840C5010E9467054C018201F32DFF773F2EFD
S113085016C0280122E0420E511CF801A080B1808C
S113086036FE03C0692D70E002C06FEF7FEFC50153
S11308700E945C054C01F32DF0683F2E820133FC8D
S11308801BC0822D90E088169906B0F4B60180E270
S113089090E00E9472052A94F4CFF50137FC85910B
S11308A037FE81915F01B60190E00E94720521102C
S11308B02A9421E0821A91088114910471F7E8C006
S11308C0843611F0893641F5F80137FE07C060819E
S11308D07181828193810C5F1F4F08C06081718197
S11308E0072E000C880B990B0E5F1F4FF32DFF761C
S11308F03F2E97FF09C090958095709561957F4F25
S11309008F4F9F4FF0683F2E2AE030E0A3010E94F2
S1130910AE05882E861845C0853731F4232D2F7EE9
S1130920B22E2AE030E025C0932D997FB92E8F3660
S1130930C1F018F4883579F0B5C0803719F08837DC
S113094021F0B0C0E92FE061BE2EB4FE0DC0FB2D36
S1130950F460BF2E09C034FE0AC0292F2660B22ECF
S113096006C028E030E005C020E130E002C020E10C
S113097032E0F801B7FE07C0608171818281938102
S11309800C5F1F4F06C06081718180E090E00E5FB4
S11309901F4FA3010E94AE05882E8618FB2DFF77FA
S11309A03F2E36FE0DC0232D2E7FA22E891458F41F
S11309B034FE0BC032FC09C0832D8E7EA82E05C0E8
S11309C0B82CA32C03C0B82C01C0B92CA4FE0FC0B2
S11309D0FE01E80DF11D8081803321F49A2D997E6A
S11309E0A92E09C0A2FE06C0B394B39404C08A2DF4
S11309F0867809F0B394A3FC11C0A0FE06C0B2141B
S1130A0088F4280C922C9B180EC0B21460F4B60122
S1130A1080E290E00E947205B394F7CFB21418F408
S1130A202B1802C0982C212CA4FE10C0B60180E320
S1130A3090E00E947205A2FE17C0A1FC03C088E7E3
S1130A4090E002C088E590E0B6010CC08A2D86785B
S1130A5059F0A1FE02C08BE201C080E2A7FC8DE246
S1130A60B60190E00E947205891438F4B60180E35F
S1130A7090E00E9472059A94F7CF8A94F301E80DEE
S1130A80F11D8081B60190E00E9472058110F5CFBE
S1130A90222009F442CEB60180E290E00E94720561
S1130AA02A94F6CFF6018681978102C08FEF9FEFDB
S1130AB02B96E2E10C942806FC01059061507040ED
S1130AC00110D8F7809590958E0F9F1F0895FC0113
S1130AD06150704001900110D8F7809590958E0F69
S1130AE09F1F08950F931F93CF93DF93FB012381DF
S1130AF021FD03C08FEF9FEF2CC022FF16C046815B
S1130B005781248135814217530744F4A081B18170
S1130B109D012F5F3F4F318320838C932681378142
S1130B202F5F3F4F3783268314C08B01EC01FB01F9
S1130B300084F185E02D0995892BE1F6D8011696FC
S1130B408D919C911797019617969C938E93169767
S1130B50CE01DF91CF911F910F910895FA01AA2739
S1130B60283051F1203181F1E8946F936E7F6E5FEC
S1130B707F4F8F4F9F4FAF4FB1E03ED0B4E03CD09A
S1130B80670F781F891F9A1FA11D680F791F8A1F7D
S1130B90911DA11D6A0F711D811D911DA11D20D0E4
S1130BA009F468943F912AE0269F11243019305D9E
S1130BB03193DEF6CF010895462F4770405D41938F
S1130BC0B3E00FD0C9F7F6CF462F4F70405D4A33DC
S1130BD018F0495D31FD4052419302D0A9F7EACFA4
S1130BE0B4E0A6959795879577956795BA95C9F7D3
S1130BF000976105710508959B01AC010A2E0694C6
S1130C005795479537952795BA95C9F7620F731F7E
S1130C10841F951FA01D08952F923F924F925F92BB
S1130C206F927F928F929F92AF92BF92CF92DF92F8
S1130C30EF92FF920F931F93CF93DF93CDB7DEB75D
S1130C40CA1BDB0B0FB6F894DEBF0FBECDBF0994F1
S1130C502A88398848885F846E847D848C849B8448
S1130C60AA84B984C884DF80EE80FD800C811B8156
S1130C70AA81B981CE0FD11D0FB6F894DEBF0FBE85
S10D0C80CDBFED010895F894FFCFF5
S1130C8A3B013B014348313A20256C75092043480E
S1130C9A323A20256C7509204348333A20256C756D
S1110CAA09204348343A20256C750D0A0000D9
S9030000FC
